{
  "contractName": "ItemManager",
  "abi": [
    {
      "anonymous": false,
      "inputs": [
        {
          "indexed": false,
          "internalType": "uint256",
          "name": "_itemIndex",
          "type": "uint256"
        },
        {
          "indexed": false,
          "internalType": "uint256",
          "name": "_step",
          "type": "uint256"
        },
        {
          "indexed": false,
          "internalType": "address",
          "name": "_address",
          "type": "address"
        }
      ],
      "name": "SupplyChainStep",
      "type": "event"
    },
    {
      "inputs": [],
      "name": "_owner",
      "outputs": [
        {
          "internalType": "address",
          "name": "",
          "type": "address"
        }
      ],
      "stateMutability": "view",
      "type": "function",
      "constant": true
    },
    {
      "inputs": [],
      "name": "isOwner",
      "outputs": [
        {
          "internalType": "bool",
          "name": "",
          "type": "bool"
        }
      ],
      "stateMutability": "view",
      "type": "function",
      "constant": true
    },
    {
      "inputs": [
        {
          "internalType": "uint256",
          "name": "",
          "type": "uint256"
        }
      ],
      "name": "items",
      "outputs": [
        {
          "internalType": "contract Item",
          "name": "_item",
          "type": "address"
        },
        {
          "internalType": "enum ItemManager.SupplyChainSteps",
          "name": "_step",
          "type": "uint8"
        },
        {
          "internalType": "string",
          "name": "_identifier",
          "type": "string"
        }
      ],
      "stateMutability": "view",
      "type": "function",
      "constant": true
    },
    {
      "inputs": [
        {
          "internalType": "string",
          "name": "_identifier",
          "type": "string"
        },
        {
          "internalType": "uint256",
          "name": "_priceInWei",
          "type": "uint256"
        }
      ],
      "name": "createItem",
      "outputs": [],
      "stateMutability": "nonpayable",
      "type": "function"
    },
    {
      "inputs": [
        {
          "internalType": "uint256",
          "name": "_index",
          "type": "uint256"
        }
      ],
      "name": "triggerPayment",
      "outputs": [],
      "stateMutability": "payable",
      "type": "function",
      "payable": true
    },
    {
      "inputs": [
        {
          "internalType": "uint256",
          "name": "_index",
          "type": "uint256"
        }
      ],
      "name": "triggerDelivery",
      "outputs": [],
      "stateMutability": "nonpayable",
      "type": "function"
    }
  ],
  "bytecode": "0x608060405234801561001057600080fd5b50336000806101000a81548173ffffffffffffffffffffffffffffffffffffffff021916908373ffffffffffffffffffffffffffffffffffffffff160217905550611bd7806100606000396000f3fe6080604052600436106200005c5760003560e01c8063800fb83f14620000615780638c55174214620000815780638f32d59b14620000af578063b2bdfa7b14620000df578063bfb231d2146200010f578063cd31831e1462000155575b600080fd5b6200007f600480360381019062000079919062000c88565b62000183565b005b3480156200008e57600080fd5b50620000ad6004803603810190620000a7919062000c2e565b620004d6565b005b348015620000bc57600080fd5b50620000c76200070f565b604051620000d6919062000e67565b60405180910390f35b348015620000ec57600080fd5b50620000f762000766565b60405162000106919062000e4a565b60405180910390f35b3480156200011c57600080fd5b506200013b600480360381019062000135919062000c88565b6200078a565b6040516200014c9392919062000ec1565b60405180910390f35b3480156200016257600080fd5b506200018160048036038101906200017b919062000c88565b62000871565b005b60006001600083815260200190815260200160002060000160009054906101000a900473ffffffffffffffffffffffffffffffffffffffff1690503373ffffffffffffffffffffffffffffffffffffffff168173ffffffffffffffffffffffffffffffffffffffff16146200022f576040517f08c379a0000000000000000000000000000000000000000000000000000000008152600401620002269062000f6b565b60405180910390fd5b348173ffffffffffffffffffffffffffffffffffffffff16633c8da5886040518163ffffffff1660e01b815260040160206040518083038186803b1580156200027757600080fd5b505afa1580156200028c573d6000803e3d6000fd5b505050506040513d601f19601f82011682018060405250810190620002b2919062000cb4565b14620002f5576040517f08c379a0000000000000000000000000000000000000000000000000000000008152600401620002ec9062000f49565b60405180910390fd5b6000600281111562000330577f4e487b7100000000000000000000000000000000000000000000000000000000600052602160045260246000fd5b6001600084815260200190815260200160002060000160149054906101000a900460ff1660028111156200038d577f4e487b7100000000000000000000000000000000000000000000000000000000600052602160045260246000fd5b14620003d0576040517f08c379a0000000000000000000000000000000000000000000000000000000008152600401620003c79062000f8d565b60405180910390fd5b600180600084815260200190815260200160002060000160146101000a81548160ff0219169083600281111562000430577f4e487b7100000000000000000000000000000000000000000000000000000000600052602160045260246000fd5b02179055507fa4035636e99f06b7651a604c1019fa4e8779fe68ef27eeb74dff2de348f6199b60025460016000600254815260200190815260200160002060000160149054906101000a900460ff166002811115620004b8577f4e487b7100000000000000000000000000000000000000000000000000000000600052602160045260246000fd5b83604051620004ca9392919062000faf565b60405180910390a15050565b620004e06200070f565b62000522576040517f08c379a0000000000000000000000000000000000000000000000000000000008152600401620005199062000f05565b60405180910390fd5b60003082600254604051620005379062000ad0565b620005459392919062000e84565b604051809103906000f08015801562000562573d6000803e3d6000fd5b5090508060016000600254815260200190815260200160002060000160006101000a81548173ffffffffffffffffffffffffffffffffffffffff021916908373ffffffffffffffffffffffffffffffffffffffff160217905550826001600060025481526020019081526020016000206001019080519060200190620005ea92919062000ade565b50600060016000600254815260200190815260200160002060000160146101000a81548160ff021916908360028111156200064e577f4e487b7100000000000000000000000000000000000000000000000000000000600052602160045260246000fd5b02179055507fa4035636e99f06b7651a604c1019fa4e8779fe68ef27eeb74dff2de348f6199b60025460016000600254815260200190815260200160002060000160149054906101000a900460ff166002811115620006d6577f4e487b7100000000000000000000000000000000000000000000000000000000600052602160045260246000fd5b83604051620006e89392919062000faf565b60405180910390a1600260008154809291906200070590620011db565b9190505550505050565b60008060009054906101000a900473ffffffffffffffffffffffffffffffffffffffff1673ffffffffffffffffffffffffffffffffffffffff163373ffffffffffffffffffffffffffffffffffffffff1614905090565b60008054906101000a900473ffffffffffffffffffffffffffffffffffffffff1681565b60016020528060005260406000206000915090508060000160009054906101000a900473ffffffffffffffffffffffffffffffffffffffff16908060000160149054906101000a900460ff1690806001018054620007e8906200116f565b80601f016020809104026020016040519081016040528092919081815260200182805462000816906200116f565b8015620008675780601f106200083b5761010080835404028352916020019162000867565b820191906000526020600020905b8154815290600101906020018083116200084957829003601f168201915b5050505050905083565b6200087b6200070f565b620008bd576040517f08c379a0000000000000000000000000000000000000000000000000000000008152600401620008b49062000f05565b60405180910390fd5b60016002811115620008f8577f4e487b7100000000000000000000000000000000000000000000000000000000600052602160045260246000fd5b6001600083815260200190815260200160002060000160149054906101000a900460ff16600281111562000955577f4e487b7100000000000000000000000000000000000000000000000000000000600052602160045260246000fd5b1462000998576040517f08c379a00000000000000000000000000000000000000000000000000000000081526004016200098f9062000f27565b60405180910390fd5b60026001600083815260200190815260200160002060000160146101000a81548160ff02191690836002811115620009f9577f4e487b7100000000000000000000000000000000000000000000000000000000600052602160045260246000fd5b02179055507fa4035636e99f06b7651a604c1019fa4e8779fe68ef27eeb74dff2de348f6199b816001600084815260200190815260200160002060000160149054906101000a900460ff16600281111562000a7d577f4e487b7100000000000000000000000000000000000000000000000000000000600052602160045260246000fd5b6001600085815260200190815260200160002060000160009054906101000a900473ffffffffffffffffffffffffffffffffffffffff1660405162000ac59392919062000faf565b60405180910390a150565b610761806200144183390190565b82805462000aec906200116f565b90600052602060002090601f01602090048101928262000b10576000855562000b5c565b82601f1062000b2b57805160ff191683800117855562000b5c565b8280016001018555821562000b5c579182015b8281111562000b5b57825182559160200191906001019062000b3e565b5b50905062000b6b919062000b6f565b5090565b5b8082111562000b8a57600081600090555060010162000b70565b5090565b600062000ba562000b9f8462001015565b62000fec565b90508281526020810184848401111562000bbe57600080fd5b62000bcb8482856200112a565b509392505050565b600082601f83011262000be557600080fd5b813562000bf784826020860162000b8e565b91505092915050565b60008135905062000c118162001426565b92915050565b60008151905062000c288162001426565b92915050565b6000806040838503121562000c4257600080fd5b600083013567ffffffffffffffff81111562000c5d57600080fd5b62000c6b8582860162000bd3565b925050602062000c7e8582860162000c00565b9150509250929050565b60006020828403121562000c9b57600080fd5b600062000cab8482850162000c00565b91505092915050565b60006020828403121562000cc757600080fd5b600062000cd78482850162000c17565b91505092915050565b62000ceb8162001067565b82525050565b62000cfc816200107b565b82525050565b62000d0d81620010c6565b82525050565b62000d1e81620010ee565b82525050565b62000d2f8162001116565b82525050565b600062000d42826200104b565b62000d4e818562001056565b935062000d6081856020860162001139565b62000d6b81620012e5565b840191505092915050565b600062000d8560178362001056565b915062000d9282620012f6565b602082019050919050565b600062000dac601d8362001056565b915062000db9826200131f565b602082019050919050565b600062000dd360128362001056565b915062000de08262001348565b602082019050919050565b600062000dfa602b8362001056565b915062000e078262001371565b604082019050919050565b600062000e2160238362001056565b915062000e2e82620013c0565b604082019050919050565b62000e4481620010bc565b82525050565b600060208201905062000e61600083018462000ce0565b92915050565b600060208201905062000e7e600083018462000cf1565b92915050565b600060608201905062000e9b600083018662000d02565b62000eaa602083018562000e39565b62000eb9604083018462000e39565b949350505050565b600060608201905062000ed8600083018662000d13565b62000ee7602083018562000d24565b818103604083015262000efb818462000d35565b9050949350505050565b6000602082019050818103600083015262000f208162000d76565b9050919050565b6000602082019050818103600083015262000f428162000d9d565b9050919050565b6000602082019050818103600083015262000f648162000dc4565b9050919050565b6000602082019050818103600083015262000f868162000deb565b9050919050565b6000602082019050818103600083015262000fa88162000e12565b9050919050565b600060608201905062000fc6600083018662000e39565b62000fd5602083018562000e39565b62000fe4604083018462000ce0565b949350505050565b600062000ff86200100b565b9050620010068282620011a5565b919050565b6000604051905090565b600067ffffffffffffffff821115620010335762001032620012b6565b5b6200103e82620012e5565b9050602081019050919050565b600081519050919050565b600082825260208201905092915050565b600062001074826200109c565b9050919050565b60008115159050919050565b600081905062001097826200140f565b919050565b600073ffffffffffffffffffffffffffffffffffffffff82169050919050565b6000819050919050565b6000620010d382620010da565b9050919050565b6000620010e7826200109c565b9050919050565b6000620010fb8262001102565b9050919050565b60006200110f826200109c565b9050919050565b6000620011238262001087565b9050919050565b82818337600083830152505050565b60005b83811015620011595780820151818401526020810190506200113c565b8381111562001169576000848401525b50505050565b600060028204905060018216806200118857607f821691505b602082108114156200119f576200119e62001287565b5b50919050565b620011b082620012e5565b810181811067ffffffffffffffff82111715620011d257620011d1620012b6565b5b80604052505050565b6000620011e882620010bc565b91507fffffffffffffffffffffffffffffffffffffffffffffffffffffffffffffffff8214156200121e576200121d62001229565b5b600182019050919050565b7f4e487b7100000000000000000000000000000000000000000000000000000000600052601160045260246000fd5b7f4e487b7100000000000000000000000000000000000000000000000000000000600052602160045260246000fd5b7f4e487b7100000000000000000000000000000000000000000000000000000000600052602260045260246000fd5b7f4e487b7100000000000000000000000000000000000000000000000000000000600052604160045260246000fd5b6000601f19601f8301169050919050565b7f43616c6c6572206973206e6f7420746865206f776e6572000000000000000000600082015250565b7f4974656d20697320696e2077726f6e6720737570706c7920636861696e000000600082015250565b7f4e6f742066756c6c792070616964207965740000000000000000000000000000600082015250565b7f4f6e6c79206974656d732061726520616c6c6f77656420746f2075706461746560008201527f207468656d73656c766573000000000000000000000000000000000000000000602082015250565b7f4974656d206973206675727468657220696e2074686520737570706c7920636860008201527f61696e0000000000000000000000000000000000000000000000000000000000602082015250565b6003811062001423576200142262001258565b5b50565b6200143181620010bc565b81146200143d57600080fd5b5056fe608060405234801561001057600080fd5b50604051610761380380610761833981810160405281019061003291906100b3565b82600360006101000a81548173ffffffffffffffffffffffffffffffffffffffff021916908373ffffffffffffffffffffffffffffffffffffffff160217905550816000819055508060028190555050505061017e565b60008151905061009881610150565b92915050565b6000815190506100ad81610167565b92915050565b6000806000606084860312156100c857600080fd5b60006100d686828701610089565b93505060206100e78682870161009e565b92505060406100f88682870161009e565b9150509250925092565b600061010d82610126565b9050919050565b600061011f82610102565b9050919050565b600073ffffffffffffffffffffffffffffffffffffffff82169050919050565b6000819050919050565b61015981610114565b811461016457600080fd5b50565b61017081610146565b811461017b57600080fd5b50565b6105d48061018d6000396000f3fe6080604052600436106100385760003560e01c80632986c0e5146102465780633c8da5881461027157806383d12eef1461029c57610241565b36610241573460005414610081576040517f08c379a0000000000000000000000000000000000000000000000000000000008152600401610078906103d9565b60405180910390fd5b6000600154146100c6576040517f08c379a00000000000000000000000000000000000000000000000000000000081526004016100bd90610399565b60405180910390fd5b34600160008282546100d8919061043b565b925050819055506000600360009054906101000a900473ffffffffffffffffffffffffffffffffffffffff1673ffffffffffffffffffffffffffffffffffffffff163460025460405160240161012e91906103f9565b6040516020818303038152906040527f800fb83f000000000000000000000000000000000000000000000000000000007bffffffffffffffffffffffffffffffffffffffffffffffffffffffff19166020820180517bffffffffffffffffffffffffffffffffffffffffffffffffffffffff83818316178352505050506040516101b89190610382565b60006040518083038185875af1925050503d80600081146101f5576040519150601f19603f3d011682016040523d82523d6000602084013e6101fa565b606091505b505090508061023e576040517f08c379a0000000000000000000000000000000000000000000000000000000008152600401610235906103b9565b60405180910390fd5b50005b600080fd5b34801561025257600080fd5b5061025b6102c7565b60405161026891906103f9565b60405180910390f35b34801561027d57600080fd5b506102866102cd565b60405161029391906103f9565b60405180910390f35b3480156102a857600080fd5b506102b16102d3565b6040516102be91906103f9565b60405180910390f35b60025481565b60005481565b60015481565b60006102e482610414565b6102ee818561041f565b93506102fe81856020860161049b565b80840191505092915050565b600061031760148361042a565b9150610322826104fd565b602082019050919050565b600061033a60158361042a565b915061034582610526565b602082019050919050565b600061035d60228361042a565b91506103688261054f565b604082019050919050565b61037c81610491565b82525050565b600061038e82846102d9565b915081905092915050565b600060208201905081810360008301526103b28161030a565b9050919050565b600060208201905081810360008301526103d28161032d565b9050919050565b600060208201905081810360008301526103f281610350565b9050919050565b600060208201905061040e6000830184610373565b92915050565b600081519050919050565b600081905092915050565b600082825260208201905092915050565b600061044682610491565b915061045183610491565b9250827fffffffffffffffffffffffffffffffffffffffffffffffffffffffffffffffff03821115610486576104856104ce565b5b828201905092915050565b6000819050919050565b60005b838110156104b957808201518184015260208101905061049e565b838111156104c8576000848401525b50505050565b7f4e487b7100000000000000000000000000000000000000000000000000000000600052601160045260246000fd5b7f6974656d20697320616c72656164792070616964000000000000000000000000600082015250565b7f44656c697665727920646964206e6f7420776f726b0000000000000000000000600082015250565b7f776520646f206e6f7420737570706f7274207061727469616c207061796d656e60008201527f747300000000000000000000000000000000000000000000000000000000000060208201525056fea26469706673582212209c410930648a743baf1246c07c3a7134362805873bb41b64fc2cdddb92c4efe164736f6c63430008040033a2646970667358221220b5cb2bbb2f35b4b07e14dc4b2ea2bb8c20120e8e09427288c1a3a8a4901dec7564736f6c63430008040033",
  "immutableReferences": {},
  "source": "pragma solidity ^0.8;\n\nimport \"./Item.sol\";\nimport \"./Ownable.sol\";\n\ncontract ItemManager is Ownable {\n    enum SupplyChainSteps{Created, Paid, Delivered}\n\n    struct S_Item {\n        Item _item;\n        ItemManager.SupplyChainSteps _step;\n        string _identifier;\n    }\n\n    mapping(uint => S_Item) public items;\n    uint index;\n\n    event SupplyChainStep(uint _itemIndex, uint _step, address _address);\n\n    function createItem(string memory _identifier, uint _priceInWei) public onlyOwner{\n        Item item = new Item(this, _priceInWei, index);\n        items[index]._item = item;\n        items[index]._identifier = _identifier;\n        items[index]._step = SupplyChainSteps.Created;\n        emit SupplyChainStep(index, uint(items[index]._step), address(item));\n        index++;\n    }\n\n    function triggerPayment(uint _index) public payable {\n        Item item = items[_index]._item;\n        require(address(item) == msg.sender, \"Only items are allowed to update themselves\");\n        require(item.priceInWei() == msg.value, \"Not fully paid yet\");\n        require(items[_index]._step == SupplyChainSteps.Created, \"Item is further in the supply chain\");\n        items[_index]._step = SupplyChainSteps.Paid;\n        emit SupplyChainStep(index, uint(items[index]._step), address(item));\n    }\n\n    function triggerDelivery(uint _index) public onlyOwner{\n        require(items[_index]._step == SupplyChainSteps.Paid, \"Item is in wrong supply chain\");\n        items[_index]._step = SupplyChainSteps.Delivered;\n        emit SupplyChainStep(_index, uint(items[_index]._step), address(items[_index]._item));\n    }\n}\n",
  "sourcePath": "/Users/viktar.zhukouski/Documents/supply-chain/contracts/ItemManager.sol",
  "compiler": {
    "name": "solc",
    "version": "0.8.4+commit.c7e474f2.Emscripten.clang"
  },
  "schemaVersion": "3.3.4",
  "updatedAt": "2021-04-26T15:01:11.050Z",
  "networkType": "ethereum",
  "devdoc": {
    "kind": "dev",
    "methods": {},
    "version": 1
  },
  "userdoc": {
    "kind": "user",
    "methods": {},
    "version": 1
  }
}