{
  "contractName": "Ownable",
  "abi": [
    {
      "inputs": [],
      "stateMutability": "nonpayable",
      "type": "constructor"
    },
    {
      "inputs": [],
      "name": "_owner",
      "outputs": [
        {
          "internalType": "address",
          "name": "",
          "type": "address"
        }
      ],
      "stateMutability": "view",
      "type": "function"
    },
    {
      "inputs": [],
      "name": "isOwner",
      "outputs": [
        {
          "internalType": "bool",
          "name": "",
          "type": "bool"
        }
      ],
      "stateMutability": "view",
      "type": "function"
    }
  ],
  "bytecode": "0x608060405234801561001057600080fd5b50336000806101000a81548173ffffffffffffffffffffffffffffffffffffffff021916908373ffffffffffffffffffffffffffffffffffffffff1602179055506101ba806100606000396000f3fe608060405234801561001057600080fd5b50600436106100365760003560e01c80638f32d59b1461003b578063b2bdfa7b14610059575b600080fd5b610043610077565b604051610050919061012b565b60405180910390f35b6100616100ce565b60405161006e9190610110565b60405180910390f35b60008060009054906101000a900473ffffffffffffffffffffffffffffffffffffffff1673ffffffffffffffffffffffffffffffffffffffff163373ffffffffffffffffffffffffffffffffffffffff1614905090565b60008054906101000a900473ffffffffffffffffffffffffffffffffffffffff1681565b6100fb81610146565b82525050565b61010a81610158565b82525050565b600060208201905061012560008301846100f2565b92915050565b60006020820190506101406000830184610101565b92915050565b600061015182610164565b9050919050565b60008115159050919050565b600073ffffffffffffffffffffffffffffffffffffffff8216905091905056fea2646970667358221220e12a4944e81045fa48dfed809c19870dc639577e93f8ccced9dbf6b111556b2364736f6c63430008040033",
  "immutableReferences": {},
  "source": "pragma solidity ^0.8;\n\ncontract Ownable {\n    address public _owner;\n    \n    constructor() {\n        _owner = msg.sender;\n    }\n\n    modifier onlyOwner() {\n        require(isOwner(), \"Caller is not the owner\");\n        _;\n    }\n\n    function isOwner() public view returns (bool){\n        return msg.sender == _owner;\n    }\n}\n",
  "sourcePath": "/Users/viktar.zhukouski/Documents/supply-chain/contracts/Ownable.sol",
  "compiler": {
    "name": "solc",
    "version": "0.8.4+commit.c7e474f2.Emscripten.clang"
  },
  "schemaVersion": "3.3.4",
  "updatedAt": "2021-04-26T15:01:10.139Z",
  "devdoc": {
    "kind": "dev",
    "methods": {},
    "version": 1
  },
  "userdoc": {
    "kind": "user",
    "methods": {},
    "version": 1
  }
}